{
  "contractName": "Cargo",
  "abi": [
    {
      "constant": true,
      "inputs": [],
      "name": "numCarriers",
      "outputs": [
        {
          "name": "",
          "type": "uint256"
        }
      ],
      "payable": false,
      "stateMutability": "view",
      "type": "function"
    },
    {
      "constant": true,
      "inputs": [],
      "name": "owner",
      "outputs": [
        {
          "name": "",
          "type": "address"
        }
      ],
      "payable": false,
      "stateMutability": "view",
      "type": "function"
    },
    {
      "constant": true,
      "inputs": [],
      "name": "maxvolume",
      "outputs": [
        {
          "name": "",
          "type": "uint256"
        }
      ],
      "payable": false,
      "stateMutability": "view",
      "type": "function"
    },
    {
      "constant": true,
      "inputs": [],
      "name": "regFee",
      "outputs": [
        {
          "name": "",
          "type": "uint256"
        }
      ],
      "payable": false,
      "stateMutability": "view",
      "type": "function"
    },
    {
      "constant": true,
      "inputs": [],
      "name": "maxweight",
      "outputs": [
        {
          "name": "",
          "type": "uint256"
        }
      ],
      "payable": false,
      "stateMutability": "view",
      "type": "function"
    },
    {
      "inputs": [
        {
          "name": "_regFee",
          "type": "uint256"
        }
      ],
      "payable": false,
      "stateMutability": "nonpayable",
      "type": "constructor"
    },
    {
      "constant": false,
      "inputs": [
        {
          "name": "_company",
          "type": "string"
        },
        {
          "name": "_name",
          "type": "string"
        },
        {
          "name": "_phoneno",
          "type": "uint256"
        },
        {
          "name": "_email",
          "type": "string"
        }
      ],
      "name": "registerCarrier",
      "outputs": [],
      "payable": true,
      "stateMutability": "payable",
      "type": "function"
    },
    {
      "constant": false,
      "inputs": [
        {
          "name": "_latitude",
          "type": "int256"
        },
        {
          "name": "_longitude",
          "type": "int256"
        },
        {
          "name": "_fare",
          "type": "uint256"
        },
        {
          "name": "_path",
          "type": "string"
        }
      ],
      "name": "addService",
      "outputs": [],
      "payable": false,
      "stateMutability": "nonpayable",
      "type": "function"
    },
    {
      "constant": true,
      "inputs": [
        {
          "name": "_id",
          "type": "uint256"
        }
      ],
      "name": "getService",
      "outputs": [
        {
          "name": "res",
          "type": "string"
        },
        {
          "name": "fare",
          "type": "uint256"
        },
        {
          "name": "lat",
          "type": "int256"
        },
        {
          "name": "lon",
          "type": "int256"
        }
      ],
      "payable": false,
      "stateMutability": "view",
      "type": "function"
    },
    {
      "constant": true,
      "inputs": [
        {
          "name": "_path",
          "type": "string"
        },
        {
          "name": "_latitude",
          "type": "int256"
        },
        {
          "name": "_longitude",
          "type": "int256"
        },
        {
          "name": "_volume",
          "type": "uint256"
        },
        {
          "name": "_weight",
          "type": "uint256"
        }
      ],
      "name": "searchCarriers",
      "outputs": [
        {
          "name": "",
          "type": "uint256[]"
        }
      ],
      "payable": false,
      "stateMutability": "view",
      "type": "function"
    },
    {
      "constant": false,
      "inputs": [
        {
          "name": "_weight",
          "type": "uint256"
        },
        {
          "name": "_volume",
          "type": "uint256"
        },
        {
          "name": "_category",
          "type": "string"
        },
        {
          "name": "_name",
          "type": "string"
        },
        {
          "name": "_phno",
          "type": "uint256"
        },
        {
          "name": "_custname",
          "type": "string"
        },
        {
          "name": "_caddr",
          "type": "address"
        }
      ],
      "name": "bookCargo",
      "outputs": [],
      "payable": true,
      "stateMutability": "payable",
      "type": "function"
    },
    {
      "constant": true,
      "inputs": [],
      "name": "isDriverValid",
      "outputs": [
        {
          "name": "res",
          "type": "bool"
        }
      ],
      "payable": false,
      "stateMutability": "view",
      "type": "function"
    },
    {
      "constant": true,
      "inputs": [
        {
          "name": "id",
          "type": "uint256"
        }
      ],
      "name": "getDriverDetails",
      "outputs": [
        {
          "name": "",
          "type": "string"
        },
        {
          "name": "",
          "type": "address"
        }
      ],
      "payable": false,
      "stateMutability": "view",
      "type": "function"
    },
    {
      "constant": true,
      "inputs": [
        {
          "name": "id",
          "type": "uint256"
        },
        {
          "name": "_path",
          "type": "string"
        }
      ],
      "name": "getFare",
      "outputs": [
        {
          "name": "",
          "type": "uint256"
        }
      ],
      "payable": false,
      "stateMutability": "view",
      "type": "function"
    }
  ],
  "bytecode": "0x608060405234801561001057600080fd5b506040516020806120f583398101806040528101908080519060200190929190505050336000806101000a81548173ffffffffffffffffffffffffffffffffffffffff021916908373ffffffffffffffffffffffffffffffffffffffff160217905550806007819055506103e86009819055506103e8600881905550506120598061009c6000396000f3006080604052600436106100c5576000357c0100000000000000000000000000000000000000000000000000000000900463ffffffff1680631cc7fced146100ca5780632259b4d4146100f55780638da5cb5b1461017c5780638dadb4c6146101d35780638df7888a146101fe5780638fff20f31461022d5780639c94011414610258578063a04cc23014610283578063a9eff10314610375578063abdce7aa1461044e578063d866d14b146104d5578063df3b4a36146105bb578063ef0e239b146106e1575b600080fd5b3480156100d657600080fd5b506100df61079c565b6040518082815260200191505060405180910390f35b34801561010157600080fd5b5061016660048036038101908080359060200190929190803590602001908201803590602001908080601f01602080910402602001604051908101604052809392919081815260200183838082843782019150505050505091929192905050506107a2565b6040518082815260200191505060405180910390f35b34801561018857600080fd5b50610191610bb0565b604051808273ffffffffffffffffffffffffffffffffffffffff1673ffffffffffffffffffffffffffffffffffffffff16815260200191505060405180910390f35b3480156101df57600080fd5b506101e8610bd5565b6040518082815260200191505060405180910390f35b34801561020a57600080fd5b50610213610bdb565b604051808215151515815260200191505060405180910390f35b34801561023957600080fd5b50610242610c35565b6040518082815260200191505060405180910390f35b34801561026457600080fd5b5061026d610c3b565b6040518082815260200191505060405180910390f35b610373600480360381019080803590602001908201803590602001908080601f0160208091040260200160405190810160405280939291908181526020018383808284378201915050505050509192919290803590602001908201803590602001908080601f016020809104026020016040519081016040528093929190818152602001838380828437820191505050505050919291929080359060200190929190803590602001908201803590602001908080601f0160208091040260200160405190810160405280939291908181526020018383808284378201915050505050509192919290505050610c41565b005b34801561038157600080fd5b506103a060048036038101908080359060200190929190505050610f23565b60405180806020018373ffffffffffffffffffffffffffffffffffffffff1673ffffffffffffffffffffffffffffffffffffffff168152602001828103825284818151815260200191508051906020019080838360005b838110156104125780820151818401526020810190506103f7565b50505050905090810190601f16801561043f5780820380516001836020036101000a031916815260200191505b50935050505060405180910390f35b34801561045a57600080fd5b506104d3600480360381019080803590602001909291908035906020019092919080359060200190929190803590602001908201803590602001908080601f016020809104026020016040519081016040528093929190818152602001838380828437820191505050505050919291929050505061109e565b005b3480156104e157600080fd5b50610564600480360381019080803590602001908201803590602001908080601f0160208091040260200160405190810160405280939291908181526020018383808284378201915050505050509192919290803590602001909291908035906020019092919080359060200190929190803590602001909291905050506112e1565b6040518080602001828103825283818151815260200191508051906020019060200280838360005b838110156105a757808201518184015260208101905061058c565b505050509050019250505060405180910390f35b6106df6004803603810190808035906020019092919080359060200190929190803590602001908201803590602001908080601f0160208091040260200160405190810160405280939291908181526020018383808284378201915050505050509192919290803590602001908201803590602001908080601f016020809104026020016040519081016040528093929190818152602001838380828437820191505050505050919291929080359060200190929190803590602001908201803590602001908080601f0160208091040260200160405190810160405280939291908181526020018383808284378201915050505050509192919290803573ffffffffffffffffffffffffffffffffffffffff1690602001909291905050506119e4565b005b3480156106ed57600080fd5b5061070c60048036038101908080359060200190929190505050611ccc565b6040518080602001858152602001848152602001838152602001828103825286818151815260200191508051906020019080838360005b8381101561075e578082015181840152602081019050610743565b50505050905090810190601f16801561078b5780820380516001836020036101000a031916815260200191505b509550505050505060405180910390f35b60065481565b6000806000806060600080881180156107bd57506006548811155b1515610831576040517f08c379a00000000000000000000000000000000000000000000000000000000081526004018080602001828103825260148152602001807f496e76616c6964206964206f662064726976657200000000000000000000000081525060200191505060405180910390fd5b600160008981526020019081526020016000206005015493506001600089815260200190815260200160002060030160009054906101000a900473ffffffffffffffffffffffffffffffffffffffff169250600360008473ffffffffffffffffffffffffffffffffffffffff1673ffffffffffffffffffffffffffffffffffffffff168152602001908152602001600020818154811015156108cf57fe5b90600052602060002090600602016003018054600181600116156101000203166002900480601f0160208091040260200160405190810160405280929190818152602001828054600181600116156101000203166002900480156109745780601f1061094957610100808354040283529160200191610974565b820191906000526020600020905b81548152906001019060200180831161095757829003601f168201915b50505050509150600090505b83811015610ba257816040516020018082805190602001908083835b6020831015156109c1578051825260208201915060208101905060208303925061099c565b6001836020036101000a0380198251168184511680821785525050505050509050019150506040516020818303038152906040526040518082805190602001908083835b602083101515610a2a5780518252602082019150602081019050602083039250610a05565b6001836020036101000a038019825116818451168082178552505050505050905001915050604051809103902060001916876040516020018082805190602001908083835b602083101515610a945780518252602082019150602081019050602083039250610a6f565b6001836020036101000a0380198251168184511680821785525050505050509050019150506040516020818303038152906040526040518082805190602001908083835b602083101515610afd5780518252602082019150602081019050602083039250610ad8565b6001836020036101000a0380198251168184511680821785525050505050509050019150506040518091039020600019161415610b9557600360008473ffffffffffffffffffffffffffffffffffffffff1673ffffffffffffffffffffffffffffffffffffffff16815260200190815260200160002081815481101515610b8057fe5b90600052602060002090600602016002015494505b8080600101915050610980565b849550505050505092915050565b6000809054906101000a900473ffffffffffffffffffffffffffffffffffffffff1681565b60095481565b600080600260003373ffffffffffffffffffffffffffffffffffffffff1673ffffffffffffffffffffffffffffffffffffffff168152602001908152602001600020541115610c2d5760019050610c32565b600090505b90565b60075481565b60085481565b6007543410151515610cbb576040517f08c379a000000000000000000000000000000000000000000000000000000000815260040180806020018281038252601d8152602001807f496e73756666696369656e7420526567697374726174696f6e2046656500000081525060200191505060405180910390fd5b60016000600260003373ffffffffffffffffffffffffffffffffffffffff1673ffffffffffffffffffffffffffffffffffffffff16815260200190815260200160002054815260200190815260200160002060060160009054906101000a900460ff16151515610d93576040517f08c379a00000000000000000000000000000000000000000000000000000000081526004018080602001828103825260138152602001807f4e6f7420612076616c696420616464726573730000000000000000000000000081525060200191505060405180910390fd5b600160065401600681905550600654600260003373ffffffffffffffffffffffffffffffffffffffff1673ffffffffffffffffffffffffffffffffffffffff1681526020019081526020016000208190555060e0604051908101604052808581526020018481526020018281526020013373ffffffffffffffffffffffffffffffffffffffff16815260200183815260200160008152602001600115158152506001600060065481526020019081526020016000206000820151816000019080519060200190610e64929190611ef5565b506020820151816001019080519060200190610e81929190611ef5565b506040820151816002019080519060200190610e9e929190611ef5565b5060608201518160030160006101000a81548173ffffffffffffffffffffffffffffffffffffffff021916908373ffffffffffffffffffffffffffffffffffffffff1602179055506080820151816004015560a0820151816005015560c08201518160060160006101000a81548160ff02191690831515021790555090505050505050565b606060008083118015610f3857506006548311155b1515610fac576040517f08c379a00000000000000000000000000000000000000000000000000000000081526004018080602001828103825260148152602001807f496e76616c6964206964206f662064726976657200000000000000000000000081525060200191505060405180910390fd5b600160008481526020019081526020016000206000016001600085815260200190815260200160002060030160009054906101000a900473ffffffffffffffffffffffffffffffffffffffff16818054600181600116156101000203166002900480601f01602080910402602001604051908101604052809291908181526020018280546001816001161561010002031660029004801561108e5780601f106110635761010080835404028352916020019161108e565b820191906000526020600020905b81548152906001019060200180831161107157829003601f168201915b5050505050915091509150915091565b6110a6611f75565b60016000600260003373ffffffffffffffffffffffffffffffffffffffff1673ffffffffffffffffffffffffffffffffffffffff16815260200190815260200160002054815260200190815260200160002060060160009054906101000a900460ff16151561117d576040517f08c379a00000000000000000000000000000000000000000000000000000000081526004018080602001828103825260138152602001807f4e6f7420612076616c696420616464726573730000000000000000000000000081525060200191505060405180910390fd5b6001806000600260003373ffffffffffffffffffffffffffffffffffffffff1673ffffffffffffffffffffffffffffffffffffffff16815260200190815260200160002054815260200190815260200160002060050160008282540192505081905550848160000181815250508381602001818152505082816040018181525050818160600181905250600081608001818152505060008160a0018181525050600360003373ffffffffffffffffffffffffffffffffffffffff1673ffffffffffffffffffffffffffffffffffffffff168152602001908152602001600020819080600181540180825580915050906001820390600052602060002090600602016000909192909190915060008201518160000155602082015181600101556040820151816002015560608201518160030190805190602001906112c2929190611ef5565b506080820151816004015560a082015181600501555050505050505050565b6060806000806000806000806000606060016000600260003373ffffffffffffffffffffffffffffffffffffffff1673ffffffffffffffffffffffffffffffffffffffff16815260200190815260200160002054815260200190815260200160002060060160009054906101000a900460ff161515156113c9576040517f08c379a00000000000000000000000000000000000000000000000000000000081526004018080602001828103825260138152602001807f4e6f7420612076616c696420616464726573730000000000000000000000000081525060200191505060405180910390fd5b60056040519080825280602002602001820160405280156113f95781602001602082028038833980820191505090505b50985060009750600196505b600654871115156119cf576001600088815260200190815260200160002060030160009054906101000a900473ffffffffffffffffffffffffffffffffffffffff16955060016000888152602001908152602001600020600501549450600093505b848410156119ba57600360008773ffffffffffffffffffffffffffffffffffffffff1673ffffffffffffffffffffffffffffffffffffffff168152602001908152602001600020848154811015156114bb57fe5b9060005260206000209060060201600001548e03600360008873ffffffffffffffffffffffffffffffffffffffff1673ffffffffffffffffffffffffffffffffffffffff1681526020019081526020016000208581548110151561151b57fe5b9060005260206000209060060201600001548f03029250600360008773ffffffffffffffffffffffffffffffffffffffff1673ffffffffffffffffffffffffffffffffffffffff1681526020019081526020016000208481548110151561157e57fe5b9060005260206000209060060201600101548d03600360008873ffffffffffffffffffffffffffffffffffffffff1673ffffffffffffffffffffffffffffffffffffffff168152602001908152602001600020858154811015156115de57fe5b9060005260206000209060060201600101548e03029150600360008773ffffffffffffffffffffffffffffffffffffffff1673ffffffffffffffffffffffffffffffffffffffff1681526020019081526020016000208481548110151561164157fe5b90600052602060002090600602016003018054600181600116156101000203166002900480601f0160208091040260200160405190810160405280929190818152602001828054600181600116156101000203166002900480156116e65780601f106116bb576101008083540402835291602001916116e6565b820191906000526020600020905b8154815290600101906020018083116116c957829003601f168201915b5050505050905060648284011280156118a25750806040516020018082805190602001908083835b602083101515611733578051825260208201915060208101905060208303925061170e565b6001836020036101000a0380198251168184511680821785525050505050509050019150506040516020818303038152906040526040518082805190602001908083835b60208310151561179c5780518252602082019150602081019050602083039250611777565b6001836020036101000a0380198251168184511680821785525050505050509050019150506040518091039020600019168f6040516020018082805190602001908083835b60208310151561180657805182526020820191506020810190506020830392506117e1565b6001836020036101000a0380198251168184511680821785525050505050509050019150506040516020818303038152906040526040518082805190602001908083835b60208310151561186f578051825260208201915060208101905060208303925061184a565b6001836020036101000a038019825116818451168082178552505050505050905001915050604051809103902060001916145b801561190f57508a600360008873ffffffffffffffffffffffffffffffffffffffff1673ffffffffffffffffffffffffffffffffffffffff168152602001908152602001600020858154811015156118f657fe5b9060005260206000209060060201600501540160085410155b801561197c57508b600360008873ffffffffffffffffffffffffffffffffffffffff1673ffffffffffffffffffffffffffffffffffffffff1681526020019081526020016000208581548110151561196357fe5b9060005260206000209060060201600401540160095410155b156119ad57600588141561198f576119ba565b86898981518110151561199e57fe5b90602001906020020181815250505b8380600101945050611467565b87806001019850508680600101975050611405565b88995050505050505050505095945050505050565b6119ec611fac565b60016000600260003373ffffffffffffffffffffffffffffffffffffffff1673ffffffffffffffffffffffffffffffffffffffff16815260200190815260200160002054815260200190815260200160002060060160009054906101000a900460ff16151515611ac4576040517f08c379a00000000000000000000000000000000000000000000000000000000081526004018080602001828103825260138152602001807f4e6f7420612076616c696420616464726573730000000000000000000000000081525060200191505060405180910390fd5b6001600560003373ffffffffffffffffffffffffffffffffffffffff1673ffffffffffffffffffffffffffffffffffffffff1681526020019081526020016000206000828254019250508190555087816080018181525050868160a001818152505085816060018190525082816020018190525083816000018181525050848160400181905250818160c0019073ffffffffffffffffffffffffffffffffffffffff16908173ffffffffffffffffffffffffffffffffffffffff168152505060008160e0018181525050600460003373ffffffffffffffffffffffffffffffffffffffff1673ffffffffffffffffffffffffffffffffffffffff1681526020019081526020016000208190806001815401808255809150509060018203906000526020600020906008020160009091929091909150600082015181600001556020820151816001019080519060200190611c1f929190611ef5565b506040820151816002019080519060200190611c3c929190611ef5565b506060820151816003019080519060200190611c59929190611ef5565b506080820151816004015560a0820151816005015560c08201518160060160006101000a81548173ffffffffffffffffffffffffffffffffffffffff021916908373ffffffffffffffffffffffffffffffffffffffff16021790555060e082015181600701555050505050505050505050565b60606000806000600360003373ffffffffffffffffffffffffffffffffffffffff1673ffffffffffffffffffffffffffffffffffffffff16815260200190815260200160002085815481101515611d1f57fe5b9060005260206000209060060201600301600360003373ffffffffffffffffffffffffffffffffffffffff1673ffffffffffffffffffffffffffffffffffffffff16815260200190815260200160002086815481101515611d7c57fe5b906000526020600020906006020160020154600360003373ffffffffffffffffffffffffffffffffffffffff1673ffffffffffffffffffffffffffffffffffffffff16815260200190815260200160002087815481101515611dda57fe5b906000526020600020906006020160000154600360003373ffffffffffffffffffffffffffffffffffffffff1673ffffffffffffffffffffffffffffffffffffffff16815260200190815260200160002088815481101515611e3857fe5b906000526020600020906006020160010154838054600181600116156101000203166002900480601f016020809104026020016040519081016040528092919081815260200182805460018160011615610100020316600290048015611edf5780601f10611eb457610100808354040283529160200191611edf565b820191906000526020600020905b815481529060010190602001808311611ec257829003601f168201915b5050505050935093509350935093509193509193565b828054600181600116156101000203166002900490600052602060002090601f016020900481019282601f10611f3657805160ff1916838001178555611f64565b82800160010185558215611f64579182015b82811115611f63578251825591602001919060010190611f48565b5b509050611f719190612008565b5090565b60c0604051908101604052806000815260200160008152602001600081526020016060815260200160008152602001600081525090565b61010060405190810160405280600081526020016060815260200160608152602001606081526020016000815260200160008152602001600073ffffffffffffffffffffffffffffffffffffffff168152602001600081525090565b61202a91905b8082111561202657600081600090555060010161200e565b5090565b905600a165627a7a72305820d8428d543990334c2dfb1c3d76eb71326e078dea96b6de15cedcaf0fce0c19030029",
  "source": "pragma solidity ^0.4.24;\n\ncontract Cargo {\n\n  address public owner;\n  \n  struct Carrier {\n    string company;\n    string name;\n    string email;\n    address companyAddr;\n    uint phoneNo;\n    uint numservice;\n    bool valid;\n  }\n\n  struct carrierInfo{\n    int latitude;\n    int longitude;\n    uint fareperkm;\n    string path;\n    uint volume;\n    uint weight;\n  }\n\n  struct Cargos{\n    uint phno;\n    string custname;\n    string cargoname;\n    string category;\n    uint weight;\n    uint volume;\n    address companyAddr;\n    uint amountToPay;\n  }\n  \n  mapping(uint => Carrier)  carrierList;\n  mapping (address => uint) mapCarrier;\n  mapping (address => carrierInfo[]) serviceList;\n  mapping (address => Cargos[]) cargoList;\n  mapping (address => uint) numCargo;\n  \n  \n\n  uint public numCarriers;\n  uint public regFee;\n  uint public maxweight ;\n  uint public maxvolume ;\n\n  modifier restricted() {\n    if (msg.sender == owner) _;\n  }\n  // owner deploy this contract with company reg fee\n  constructor(uint _regFee) public {\n    owner = msg.sender;\n    regFee = _regFee;\n    maxvolume = 1000;\n    maxweight = 1000;\n  }\n\n  function registerCarrier(string memory _company,string memory _name,uint _phoneno,string memory _email) public payable {\n     require (msg.value >= regFee,\"Insufficient Registration Fee\");\n     require (!carrierList[mapCarrier[msg.sender]].valid,\"Not a valid address\");\n      numCarriers = numCarriers + 1;\n      mapCarrier[msg.sender] = numCarriers;\n      carrierList[numCarriers] = Carrier({\n        company : _company,\n        name: _name,\n        email:_email,\n        phoneNo : _phoneno,\n        numservice :0,\n        companyAddr: msg.sender,\n        valid  : true\n      });\n  }\n\n  function addService (int _latitude,int _longitude,uint _fare,string _path) public {\n\n    require (carrierList[mapCarrier[msg.sender]].valid,\"Not a valid address\");\n    \n    carrierInfo memory currentservice;\n    carrierList[mapCarrier[msg.sender]].numservice += 1;\n    currentservice.latitude = _latitude;\n    currentservice.longitude = _longitude;\n    currentservice.fareperkm = _fare;\n    currentservice.path = _path;\n    currentservice.volume = 0;\n    currentservice.weight = 0;\n    serviceList[msg.sender].push(currentservice);\n  }\n\n  function getService (uint _id) public view returns(string res,uint fare,int lat,int lon) {\n\n    return (serviceList[msg.sender][_id].path,serviceList[msg.sender][_id].fareperkm,serviceList[msg.sender][_id].latitude,serviceList[msg.sender][_id].longitude);\n  }\n\n  function searchCarriers (string  _path,int _latitude,int _longitude,uint _volume,uint _weight) public view returns(uint[]) {\n    require (!carrierList[mapCarrier[msg.sender]].valid,\"Not a valid address\");\n     \n     uint[] memory requestList = new uint[](5);\n     uint count = 0;\n     for(uint i=1;i<=numCarriers;i++){\n        address compaddr = carrierList[i].companyAddr;\n       \n        uint numser = carrierList[i].numservice;\n        for(uint j=0;j<numser;j++){\n          int disLat = (_latitude - serviceList[compaddr][j].latitude) * (_latitude - serviceList[compaddr][j].latitude);\n          int disLon = (_longitude - serviceList[compaddr][j].longitude) * (_longitude - serviceList[compaddr][j].longitude);\n          string memory b = serviceList[compaddr][j].path;\n          if(disLat + disLon < 100 &&  keccak256(abi.encodePacked(_path)) == keccak256(abi.encodePacked(b)) && maxweight >= serviceList[compaddr][j].weight+_weight && maxvolume >= serviceList[compaddr][j].volume+_volume)\n            {\n              if(count==5)\n                break;\n              requestList[count] = i;\n            }\n        }\n        count++;\n      } \n\n      return requestList;\n  }\n\n  function bookCargo(uint _weight,uint _volume,string _category,string _name,uint _phno,string _custname,address _caddr) public payable {\n      require (!carrierList[mapCarrier[msg.sender]].valid,\"Not a valid address\");\n      \n      Cargos memory currentcargo;\n      numCargo[msg.sender]+=1;\n      currentcargo.weight = _weight;\n      currentcargo.volume = _volume;\n      currentcargo.category = _category;\n      currentcargo.custname = _custname;\n      currentcargo.phno = _phno;\n      currentcargo.cargoname = _name;\n      currentcargo.companyAddr = _caddr;\n      currentcargo.amountToPay = 0;\n      cargoList[msg.sender].push(currentcargo);\n   }\n\n   function isDriverValid() public view returns(bool res) {\n    if(mapCarrier[msg.sender]>0)\n      return true;\n    else\n      return false;  \n  }\n   function getDriverDetails (uint id) public view returns(string,address)  {\n    require (id >0 && id <=numCarriers,\"Invalid id of driver\");\n\n    return (carrierList[id].company,carrierList[id].companyAddr);\n  }\n  function getFare (uint id,string _path) public view returns(uint)  {\n    require (id >0 && id <=numCarriers,\"Invalid id of driver\");\n    uint fare;\n    uint numser = carrierList[id].numservice;\n    address compaddr = carrierList[id].companyAddr;\n    string memory b = serviceList[compaddr][j].path;\n    \n    for(uint j=0;j<numser;j++){\n      if(keccak256(abi.encodePacked(_path)) == keccak256(abi.encodePacked(b)))\n        fare = serviceList[compaddr][j].fareperkm;\n    }\n\n    return fare;\n  }\n\n  \n\n\n}\n",
  "sourcePath": "/home/vishal/blockchains/Decentralized_Cargo/contracts/Cargo.sol",
  "compiler": {
    "name": "solc",
    "version": "0.4.24+commit.e67f0147.Emscripten.clang"
  },
  "schemaVersion": "2.0.1",
  "updatedAt": "2019-04-07T18:14:00.931Z"
}