{
  "contractName": "Cargo",
  "abi": [
    {
      "constant": true,
      "inputs": [],
      "name": "numCarriers",
      "outputs": [
        {
          "name": "",
          "type": "uint256"
        }
      ],
      "payable": false,
      "stateMutability": "view",
      "type": "function"
    },
    {
      "constant": true,
      "inputs": [],
      "name": "owner",
      "outputs": [
        {
          "name": "",
          "type": "address"
        }
      ],
      "payable": false,
      "stateMutability": "view",
      "type": "function"
    },
    {
      "constant": true,
      "inputs": [],
      "name": "maxvolume",
      "outputs": [
        {
          "name": "",
          "type": "uint256"
        }
      ],
      "payable": false,
      "stateMutability": "view",
      "type": "function"
    },
    {
      "constant": true,
      "inputs": [],
      "name": "regFee",
      "outputs": [
        {
          "name": "",
          "type": "uint256"
        }
      ],
      "payable": false,
      "stateMutability": "view",
      "type": "function"
    },
    {
      "constant": true,
      "inputs": [],
      "name": "maxweight",
      "outputs": [
        {
          "name": "",
          "type": "uint256"
        }
      ],
      "payable": false,
      "stateMutability": "view",
      "type": "function"
    },
    {
      "inputs": [
        {
          "name": "_regFee",
          "type": "uint256"
        }
      ],
      "payable": false,
      "stateMutability": "nonpayable",
      "type": "constructor"
    },
    {
      "constant": false,
      "inputs": [
        {
          "name": "_company",
          "type": "string"
        },
        {
          "name": "_name",
          "type": "string"
        },
        {
          "name": "_phoneno",
          "type": "uint256"
        },
        {
          "name": "_email",
          "type": "string"
        }
      ],
      "name": "registerCarrier",
      "outputs": [],
      "payable": true,
      "stateMutability": "payable",
      "type": "function"
    },
    {
      "constant": false,
      "inputs": [
        {
          "name": "_latitude",
          "type": "int256"
        },
        {
          "name": "_longitude",
          "type": "int256"
        },
        {
          "name": "_fare",
          "type": "uint256"
        },
        {
          "name": "_path",
          "type": "string"
        }
      ],
      "name": "addService",
      "outputs": [],
      "payable": false,
      "stateMutability": "nonpayable",
      "type": "function"
    },
    {
      "constant": true,
      "inputs": [
        {
          "name": "_id",
          "type": "uint256"
        }
      ],
      "name": "getService",
      "outputs": [
        {
          "name": "res",
          "type": "string"
        },
        {
          "name": "fare",
          "type": "uint256"
        },
        {
          "name": "lat",
          "type": "int256"
        },
        {
          "name": "lon",
          "type": "int256"
        }
      ],
      "payable": false,
      "stateMutability": "view",
      "type": "function"
    },
    {
      "constant": true,
      "inputs": [
        {
          "name": "_path",
          "type": "string"
        },
        {
          "name": "_latitude",
          "type": "int256"
        },
        {
          "name": "_longitude",
          "type": "int256"
        },
        {
          "name": "_volume",
          "type": "uint256"
        },
        {
          "name": "_weight",
          "type": "uint256"
        }
      ],
      "name": "searchCarriers",
      "outputs": [
        {
          "name": "",
          "type": "uint256[]"
        }
      ],
      "payable": false,
      "stateMutability": "view",
      "type": "function"
    },
    {
      "constant": false,
      "inputs": [
        {
          "name": "_weight",
          "type": "uint256"
        },
        {
          "name": "_volume",
          "type": "uint256"
        },
        {
          "name": "_category",
          "type": "string"
        },
        {
          "name": "_name",
          "type": "string"
        },
        {
          "name": "_phno",
          "type": "uint256"
        },
        {
          "name": "_custname",
          "type": "string"
        },
        {
          "name": "_caddr",
          "type": "address"
        },
        {
          "name": "_pay",
          "type": "uint256"
        }
      ],
      "name": "bookCargo",
      "outputs": [],
      "payable": true,
      "stateMutability": "payable",
      "type": "function"
    },
    {
      "constant": true,
      "inputs": [],
      "name": "isDriverValid",
      "outputs": [
        {
          "name": "res",
          "type": "bool"
        }
      ],
      "payable": false,
      "stateMutability": "view",
      "type": "function"
    },
    {
      "constant": true,
      "inputs": [
        {
          "name": "id",
          "type": "uint256"
        }
      ],
      "name": "getDriverDetails",
      "outputs": [
        {
          "name": "",
          "type": "string"
        },
        {
          "name": "",
          "type": "address"
        }
      ],
      "payable": false,
      "stateMutability": "view",
      "type": "function"
    },
    {
      "constant": true,
      "inputs": [
        {
          "name": "id",
          "type": "uint256"
        },
        {
          "name": "_path",
          "type": "string"
        }
      ],
      "name": "getFare",
      "outputs": [
        {
          "name": "",
          "type": "uint256"
        }
      ],
      "payable": false,
      "stateMutability": "view",
      "type": "function"
    },
    {
      "constant": true,
      "inputs": [],
      "name": "getCargoList",
      "outputs": [
        {
          "name": "",
          "type": "uint256[]"
        }
      ],
      "payable": false,
      "stateMutability": "view",
      "type": "function"
    },
    {
      "constant": true,
      "inputs": [
        {
          "name": "_id",
          "type": "uint256"
        }
      ],
      "name": "getCargoDetails",
      "outputs": [
        {
          "name": "",
          "type": "string"
        },
        {
          "name": "",
          "type": "string"
        },
        {
          "name": "",
          "type": "uint256"
        }
      ],
      "payable": false,
      "stateMutability": "view",
      "type": "function"
    },
    {
      "constant": false,
      "inputs": [
        {
          "name": "_id",
          "type": "uint256"
        }
      ],
      "name": "delivered",
      "outputs": [],
      "payable": false,
      "stateMutability": "nonpayable",
      "type": "function"
    }
  ],
  "bytecode": "0x608060405234801561001057600080fd5b50604051602080612abe83398101806040528101908080519060200190929190505050336000806101000a81548173ffffffffffffffffffffffffffffffffffffffff021916908373ffffffffffffffffffffffffffffffffffffffff160217905550806008819055506103e8600a819055506103e860098190555050612a228061009c6000396000f3006080604052600436106100e6576000357c0100000000000000000000000000000000000000000000000000000000900463ffffffff16806302289648146100eb5780631cc7fced146102045780632259b4d41461022f5780634b5e4108146102b657806377772507146102e35780638da5cb5b1461034f5780638dadb4c6146103a65780638df7888a146103d15780638fff20f3146104005780639c9401141461042b578063a04cc23014610456578063a9eff10314610548578063abdce7aa14610621578063d866d14b146106a8578063e54c5f821461078e578063ef0e239b146108be575b600080fd5b3480156100f757600080fd5b5061011660048036038101908080359060200190929190505050610979565b604051808060200180602001848152602001838103835286818151815260200191508051906020019080838360005b83811015610160578082015181840152602081019050610145565b50505050905090810190601f16801561018d5780820380516001836020036101000a031916815260200191505b50838103825285818151815260200191508051906020019080838360005b838110156101c65780820151818401526020810190506101ab565b50505050905090810190601f1680156101f35780820380516001836020036101000a031916815260200191505b509550505050505060405180910390f35b34801561021057600080fd5b50610219610cb3565b6040518082815260200191505060405180910390f35b34801561023b57600080fd5b506102a060048036038101908080359060200190929190803590602001908201803590602001908080601f0160208091040260200160405190810160405280939291908181526020018383808284378201915050505050509192919290505050610cb9565b6040518082815260200191505060405180910390f35b3480156102c257600080fd5b506102e1600480360381019080803590602001909291905050506110c7565b005b3480156102ef57600080fd5b506102f8611205565b6040518080602001828103825283818151815260200191508051906020019060200280838360005b8381101561033b578082015181840152602081019050610320565b505050509050019250505060405180910390f35b34801561035b57600080fd5b5061036461141c565b604051808273ffffffffffffffffffffffffffffffffffffffff1673ffffffffffffffffffffffffffffffffffffffff16815260200191505060405180910390f35b3480156103b257600080fd5b506103bb611441565b6040518082815260200191505060405180910390f35b3480156103dd57600080fd5b506103e6611447565b604051808215151515815260200191505060405180910390f35b34801561040c57600080fd5b506104156114a1565b6040518082815260200191505060405180910390f35b34801561043757600080fd5b506104406114a7565b6040518082815260200191505060405180910390f35b610546600480360381019080803590602001908201803590602001908080601f0160208091040260200160405190810160405280939291908181526020018383808284378201915050505050509192919290803590602001908201803590602001908080601f016020809104026020016040519081016040528093929190818152602001838380828437820191505050505050919291929080359060200190929190803590602001908201803590602001908080601f01602080910402602001604051908101604052809392919081815260200183838082843782019150505050505091929192905050506114ad565b005b34801561055457600080fd5b506105736004803603810190808035906020019092919050505061178f565b60405180806020018373ffffffffffffffffffffffffffffffffffffffff1673ffffffffffffffffffffffffffffffffffffffff168152602001828103825284818151815260200191508051906020019080838360005b838110156105e55780820151818401526020810190506105ca565b50505050905090810190601f1680156106125780820380516001836020036101000a031916815260200191505b50935050505060405180910390f35b34801561062d57600080fd5b506106a6600480360381019080803590602001909291908035906020019092919080359060200190929190803590602001908201803590602001908080601f016020809104026020016040519081016040528093929190818152602001838380828437820191505050505050919291929050505061190a565b005b3480156106b457600080fd5b50610737600480360381019080803590602001908201803590602001908080601f016020809104026020016040519081016040528093929190818152602001838380828437820191505050505050919291929080359060200190929190803590602001909291908035906020019092919080359060200190929190505050611b4d565b6040518080602001828103825283818151815260200191508051906020019060200280838360005b8381101561077a57808201518184015260208101905061075f565b505050509050019250505060405180910390f35b6108bc6004803603810190808035906020019092919080359060200190929190803590602001908201803590602001908080601f0160208091040260200160405190810160405280939291908181526020018383808284378201915050505050509192919290803590602001908201803590602001908080601f016020809104026020016040519081016040528093929190818152602001838380828437820191505050505050919291929080359060200190929190803590602001908201803590602001908080601f0160208091040260200160405190810160405280939291908181526020018383808284378201915050505050509192919290803573ffffffffffffffffffffffffffffffffffffffff16906020019092919080359060200190929190505050612250565b005b3480156108ca57600080fd5b506108e96004803603810190808035906020019092919050505061268e565b6040518080602001858152602001848152602001838152602001828103825286818151815260200191508051906020019080838360005b8381101561093b578082015181840152602081019050610920565b50505050905090810190601f1680156109685780820380516001836020036101000a031916815260200191505b509550505050505060405180910390f35b606080600060016000600260003373ffffffffffffffffffffffffffffffffffffffff1673ffffffffffffffffffffffffffffffffffffffff16815260200190815260200160002054815260200190815260200160002060060160009054906101000a900460ff16151515610a56576040517f08c379a00000000000000000000000000000000000000000000000000000000081526004018080602001828103825260138152602001807f4e6f7420612076616c696420616464726573730000000000000000000000000081525060200191505060405180910390fd5b600460003373ffffffffffffffffffffffffffffffffffffffff1673ffffffffffffffffffffffffffffffffffffffff16815260200190815260200160002084815481101515610aa257fe5b9060005260206000209060090201600301600460003373ffffffffffffffffffffffffffffffffffffffff1673ffffffffffffffffffffffffffffffffffffffff16815260200190815260200160002085815481101515610aff57fe5b9060005260206000209060090201600201600460003373ffffffffffffffffffffffffffffffffffffffff1673ffffffffffffffffffffffffffffffffffffffff16815260200190815260200160002086815481101515610b5c57fe5b906000526020600020906009020160070154828054600181600116156101000203166002900480601f016020809104026020016040519081016040528092919081815260200182805460018160011615610100020316600290048015610c035780601f10610bd857610100808354040283529160200191610c03565b820191906000526020600020905b815481529060010190602001808311610be657829003601f168201915b50505050509250818054600181600116156101000203166002900480601f016020809104026020016040519081016040528092919081815260200182805460018160011615610100020316600290048015610c9f5780601f10610c7457610100808354040283529160200191610c9f565b820191906000526020600020905b815481529060010190602001808311610c8257829003601f168201915b505050505091509250925092509193909250565b60075481565b600080600080606060008088118015610cd457506007548811155b1515610d48576040517f08c379a00000000000000000000000000000000000000000000000000000000081526004018080602001828103825260148152602001807f496e76616c6964206964206f662064726976657200000000000000000000000081525060200191505060405180910390fd5b600160008981526020019081526020016000206005015493506001600089815260200190815260200160002060030160009054906101000a900473ffffffffffffffffffffffffffffffffffffffff169250600360008473ffffffffffffffffffffffffffffffffffffffff1673ffffffffffffffffffffffffffffffffffffffff16815260200190815260200160002081815481101515610de657fe5b90600052602060002090600602016003018054600181600116156101000203166002900480601f016020809104026020016040519081016040528092919081815260200182805460018160011615610100020316600290048015610e8b5780601f10610e6057610100808354040283529160200191610e8b565b820191906000526020600020905b815481529060010190602001808311610e6e57829003601f168201915b50505050509150600090505b838110156110b957816040516020018082805190602001908083835b602083101515610ed85780518252602082019150602081019050602083039250610eb3565b6001836020036101000a0380198251168184511680821785525050505050509050019150506040516020818303038152906040526040518082805190602001908083835b602083101515610f415780518252602082019150602081019050602083039250610f1c565b6001836020036101000a038019825116818451168082178552505050505050905001915050604051809103902060001916876040516020018082805190602001908083835b602083101515610fab5780518252602082019150602081019050602083039250610f86565b6001836020036101000a0380198251168184511680821785525050505050509050019150506040516020818303038152906040526040518082805190602001908083835b6020831015156110145780518252602082019150602081019050602083039250610fef565b6001836020036101000a03801982511681845116808217855250505050505090500191505060405180910390206000191614156110ac57600360008473ffffffffffffffffffffffffffffffffffffffff1673ffffffffffffffffffffffffffffffffffffffff1681526020019081526020016000208181548110151561109757fe5b90600052602060002090600602016002015494505b8080600101915050610e97565b849550505050505092915050565b60016000600260003373ffffffffffffffffffffffffffffffffffffffff1673ffffffffffffffffffffffffffffffffffffffff16815260200190815260200160002054815260200190815260200160002060060160009054906101000a900460ff1615151561119f576040517f08c379a00000000000000000000000000000000000000000000000000000000081526004018080602001828103825260138152602001807f4e6f7420612076616c696420616464726573730000000000000000000000000081525060200191505060405180910390fd5b6002600460003373ffffffffffffffffffffffffffffffffffffffff1673ffffffffffffffffffffffffffffffffffffffff168152602001908152602001600020828154811015156111ed57fe5b90600052602060002090600902016008018190555050565b60608060008060008060016000600260003373ffffffffffffffffffffffffffffffffffffffff1673ffffffffffffffffffffffffffffffffffffffff16815260200190815260200160002054815260200190815260200160002060060160009054906101000a900460ff161515156112e6576040517f08c379a00000000000000000000000000000000000000000000000000000000081526004018080602001828103825260138152602001807f4e6f7420612076616c696420616464726573730000000000000000000000000081525060200191505060405180910390fd5b60056040519080825280602002602001820160405280156113165781602001602082028038833980820191505090505b509450600560003373ffffffffffffffffffffffffffffffffffffffff1673ffffffffffffffffffffffffffffffffffffffff16815260200190815260200160002054935060009250600091505b8382101561141157600460003373ffffffffffffffffffffffffffffffffffffffff1673ffffffffffffffffffffffffffffffffffffffff168152602001908152602001600020828154811015156113b857fe5b906000526020600020906009020160080154905060018114156114045760058314156113e357611411565b6001820185848151811015156113f557fe5b90602001906020020181815250505b8180600101925050611364565b849550505050505090565b6000809054906101000a900473ffffffffffffffffffffffffffffffffffffffff1681565b600a5481565b600080600260003373ffffffffffffffffffffffffffffffffffffffff1673ffffffffffffffffffffffffffffffffffffffff168152602001908152602001600020541115611499576001905061149e565b600090505b90565b60085481565b60095481565b6008543410151515611527576040517f08c379a000000000000000000000000000000000000000000000000000000000815260040180806020018281038252601d8152602001807f496e73756666696369656e7420526567697374726174696f6e2046656500000081525060200191505060405180910390fd5b60016000600260003373ffffffffffffffffffffffffffffffffffffffff1673ffffffffffffffffffffffffffffffffffffffff16815260200190815260200160002054815260200190815260200160002060060160009054906101000a900460ff161515156115ff576040517f08c379a00000000000000000000000000000000000000000000000000000000081526004018080602001828103825260138152602001807f4e6f7420612076616c696420616464726573730000000000000000000000000081525060200191505060405180910390fd5b600160075401600781905550600754600260003373ffffffffffffffffffffffffffffffffffffffff1673ffffffffffffffffffffffffffffffffffffffff1681526020019081526020016000208190555060e0604051908101604052808581526020018481526020018281526020013373ffffffffffffffffffffffffffffffffffffffff168152602001838152602001600081526020016001151581525060016000600754815260200190815260200160002060008201518160000190805190602001906116d09291906128b7565b5060208201518160010190805190602001906116ed9291906128b7565b50604082015181600201908051906020019061170a9291906128b7565b5060608201518160030160006101000a81548173ffffffffffffffffffffffffffffffffffffffff021916908373ffffffffffffffffffffffffffffffffffffffff1602179055506080820151816004015560a0820151816005015560c08201518160060160006101000a81548160ff02191690831515021790555090505050505050565b6060600080831180156117a457506007548311155b1515611818576040517f08c379a00000000000000000000000000000000000000000000000000000000081526004018080602001828103825260148152602001807f496e76616c6964206964206f662064726976657200000000000000000000000081525060200191505060405180910390fd5b600160008481526020019081526020016000206000016001600085815260200190815260200160002060030160009054906101000a900473ffffffffffffffffffffffffffffffffffffffff16818054600181600116156101000203166002900480601f0160208091040260200160405190810160405280929190818152602001828054600181600116156101000203166002900480156118fa5780601f106118cf576101008083540402835291602001916118fa565b820191906000526020600020905b8154815290600101906020018083116118dd57829003601f168201915b5050505050915091509150915091565b611912612937565b60016000600260003373ffffffffffffffffffffffffffffffffffffffff1673ffffffffffffffffffffffffffffffffffffffff16815260200190815260200160002054815260200190815260200160002060060160009054906101000a900460ff1615156119e9576040517f08c379a00000000000000000000000000000000000000000000000000000000081526004018080602001828103825260138152602001807f4e6f7420612076616c696420616464726573730000000000000000000000000081525060200191505060405180910390fd5b6001806000600260003373ffffffffffffffffffffffffffffffffffffffff1673ffffffffffffffffffffffffffffffffffffffff16815260200190815260200160002054815260200190815260200160002060050160008282540192505081905550848160000181815250508381602001818152505082816040018181525050818160600181905250600081608001818152505060008160a0018181525050600360003373ffffffffffffffffffffffffffffffffffffffff1673ffffffffffffffffffffffffffffffffffffffff16815260200190815260200160002081908060018154018082558091505090600182039060005260206000209060060201600090919290919091506000820151816000015560208201518160010155604082015181600201556060820151816003019080519060200190611b2e9291906128b7565b506080820151816004015560a082015181600501555050505050505050565b6060806000806000806000806000606060016000600260003373ffffffffffffffffffffffffffffffffffffffff1673ffffffffffffffffffffffffffffffffffffffff16815260200190815260200160002054815260200190815260200160002060060160009054906101000a900460ff16151515611c35576040517f08c379a00000000000000000000000000000000000000000000000000000000081526004018080602001828103825260138152602001807f4e6f7420612076616c696420616464726573730000000000000000000000000081525060200191505060405180910390fd5b6005604051908082528060200260200182016040528015611c655781602001602082028038833980820191505090505b50985060009750600196505b6007548711151561223b576001600088815260200190815260200160002060030160009054906101000a900473ffffffffffffffffffffffffffffffffffffffff16955060016000888152602001908152602001600020600501549450600093505b8484101561222657600360008773ffffffffffffffffffffffffffffffffffffffff1673ffffffffffffffffffffffffffffffffffffffff16815260200190815260200160002084815481101515611d2757fe5b9060005260206000209060060201600001548e03600360008873ffffffffffffffffffffffffffffffffffffffff1673ffffffffffffffffffffffffffffffffffffffff16815260200190815260200160002085815481101515611d8757fe5b9060005260206000209060060201600001548f03029250600360008773ffffffffffffffffffffffffffffffffffffffff1673ffffffffffffffffffffffffffffffffffffffff16815260200190815260200160002084815481101515611dea57fe5b9060005260206000209060060201600101548d03600360008873ffffffffffffffffffffffffffffffffffffffff1673ffffffffffffffffffffffffffffffffffffffff16815260200190815260200160002085815481101515611e4a57fe5b9060005260206000209060060201600101548e03029150600360008773ffffffffffffffffffffffffffffffffffffffff1673ffffffffffffffffffffffffffffffffffffffff16815260200190815260200160002084815481101515611ead57fe5b90600052602060002090600602016003018054600181600116156101000203166002900480601f016020809104026020016040519081016040528092919081815260200182805460018160011615610100020316600290048015611f525780601f10611f2757610100808354040283529160200191611f52565b820191906000526020600020905b815481529060010190602001808311611f3557829003601f168201915b50505050509050606482840112801561210e5750806040516020018082805190602001908083835b602083101515611f9f5780518252602082019150602081019050602083039250611f7a565b6001836020036101000a0380198251168184511680821785525050505050509050019150506040516020818303038152906040526040518082805190602001908083835b6020831015156120085780518252602082019150602081019050602083039250611fe3565b6001836020036101000a0380198251168184511680821785525050505050509050019150506040518091039020600019168f6040516020018082805190602001908083835b602083101515612072578051825260208201915060208101905060208303925061204d565b6001836020036101000a0380198251168184511680821785525050505050509050019150506040516020818303038152906040526040518082805190602001908083835b6020831015156120db57805182526020820191506020810190506020830392506120b6565b6001836020036101000a038019825116818451168082178552505050505050905001915050604051809103902060001916145b801561217b57508a600360008873ffffffffffffffffffffffffffffffffffffffff1673ffffffffffffffffffffffffffffffffffffffff1681526020019081526020016000208581548110151561216257fe5b9060005260206000209060060201600501540160095410155b80156121e857508b600360008873ffffffffffffffffffffffffffffffffffffffff1673ffffffffffffffffffffffffffffffffffffffff168152602001908152602001600020858154811015156121cf57fe5b90600052602060002090600602016004015401600a5410155b156122195760058814156121fb57612226565b86898981518110151561220a57fe5b90602001906020020181815250505b8380600101945050611cd3565b87806001019850508680600101975050611c71565b88995050505050505050505095945050505050565b61225861296e565b60016000600260003373ffffffffffffffffffffffffffffffffffffffff1673ffffffffffffffffffffffffffffffffffffffff16815260200190815260200160002054815260200190815260200160002060060160009054906101000a900460ff16151515612330576040517f08c379a00000000000000000000000000000000000000000000000000000000081526004018080602001828103825260138152602001807f4e6f7420612076616c696420616464726573730000000000000000000000000081525060200191505060405180910390fd5b6001600560003373ffffffffffffffffffffffffffffffffffffffff1673ffffffffffffffffffffffffffffffffffffffff1681526020019081526020016000206000828254019250508190555088816080018181525050878160a001818152505086816060018190525083816020018190525084816000018181525050858160400181905250828160c0019073ffffffffffffffffffffffffffffffffffffffff16908173ffffffffffffffffffffffffffffffffffffffff1681525050818160e0018181525050600181610100018181525050600460003373ffffffffffffffffffffffffffffffffffffffff1673ffffffffffffffffffffffffffffffffffffffff16815260200190815260200160002081908060018154018082558091505090600182039060005260206000209060090201600090919290919091506000820151816000015560208201518160010190805190602001906124969291906128b7565b5060408201518160020190805190602001906124b39291906128b7565b5060608201518160030190805190602001906124d09291906128b7565b506080820151816004015560a0820151816005015560c08201518160060160006101000a81548173ffffffffffffffffffffffffffffffffffffffff021916908373ffffffffffffffffffffffffffffffffffffffff16021790555060e082015181600701556101008201518160080155505050600660008473ffffffffffffffffffffffffffffffffffffffff1673ffffffffffffffffffffffffffffffffffffffff16815260200190815260200160002081908060018154018082558091505090600182039060005260206000209060090201600090919290919091506000820151816000015560208201518160010190805190602001906125d59291906128b7565b5060408201518160020190805190602001906125f29291906128b7565b50606082015181600301908051906020019061260f9291906128b7565b506080820151816004015560a0820151816005015560c08201518160060160006101000a81548173ffffffffffffffffffffffffffffffffffffffff021916908373ffffffffffffffffffffffffffffffffffffffff16021790555060e082015181600701556101008201518160080155505050505050505050505050565b60606000806000600360003373ffffffffffffffffffffffffffffffffffffffff1673ffffffffffffffffffffffffffffffffffffffff168152602001908152602001600020858154811015156126e157fe5b9060005260206000209060060201600301600360003373ffffffffffffffffffffffffffffffffffffffff1673ffffffffffffffffffffffffffffffffffffffff1681526020019081526020016000208681548110151561273e57fe5b906000526020600020906006020160020154600360003373ffffffffffffffffffffffffffffffffffffffff1673ffffffffffffffffffffffffffffffffffffffff1681526020019081526020016000208781548110151561279c57fe5b906000526020600020906006020160000154600360003373ffffffffffffffffffffffffffffffffffffffff1673ffffffffffffffffffffffffffffffffffffffff168152602001908152602001600020888154811015156127fa57fe5b906000526020600020906006020160010154838054600181600116156101000203166002900480601f0160208091040260200160405190810160405280929190818152602001828054600181600116156101000203166002900480156128a15780601f10612876576101008083540402835291602001916128a1565b820191906000526020600020905b81548152906001019060200180831161288457829003601f168201915b5050505050935093509350935093509193509193565b828054600181600116156101000203166002900490600052602060002090601f016020900481019282601f106128f857805160ff1916838001178555612926565b82800160010185558215612926579182015b8281111561292557825182559160200191906001019061290a565b5b50905061293391906129d1565b5090565b60c0604051908101604052806000815260200160008152602001600081526020016060815260200160008152602001600081525090565b61012060405190810160405280600081526020016060815260200160608152602001606081526020016000815260200160008152602001600073ffffffffffffffffffffffffffffffffffffffff16815260200160008152602001600081525090565b6129f391905b808211156129ef5760008160009055506001016129d7565b5090565b905600a165627a7a72305820bcaa01226f18b1cefe962a77df5a1fcd5de77b9c632cb1c135d6e4345eb3b5860029",
  "source": "pragma solidity ^0.4.24;\n\ncontract Cargo {\n\n  address public owner;\n  \n  struct Carrier {\n    string company;\n    string name;\n    string email;\n    address companyAddr;\n    uint phoneNo;\n    uint numservice;\n    bool valid;\n  }\n\n  struct carrierInfo{\n    int latitude;\n    int longitude;\n    uint fareperkm;\n    string path;\n    uint volume;\n    uint weight;\n  }\n\n  struct Cargos{\n    uint phno;\n    string custname;\n    string cargoname;\n    string category;\n    uint weight;\n    uint volume;\n    address companyAddr;\n    uint amountToPay;\n    uint status;\n  }\n  \n  mapping(uint => Carrier)  carrierList;\n  mapping (address => uint) mapCarrier;\n  mapping (address => carrierInfo[]) serviceList;\n  mapping (address => Cargos[]) cargoList;\n  mapping (address => uint) numCargo;\n  mapping (address => Cargos[]) serviceCargo;\n  \n  \n  \n\n  uint public numCarriers;\n  uint public regFee;\n  uint public maxweight ;\n  uint public maxvolume ;\n\n  modifier restricted() {\n    if (msg.sender == owner) _;\n  }\n  // owner deploy this contract with company reg fee\n  constructor(uint _regFee) public {\n    owner = msg.sender;\n    regFee = _regFee;\n    maxvolume = 1000;\n    maxweight = 1000;\n  }\n\n  function registerCarrier(string memory _company,string memory _name,uint _phoneno,string memory _email) public payable {\n     require (msg.value >= regFee,\"Insufficient Registration Fee\");\n     require (!carrierList[mapCarrier[msg.sender]].valid,\"Not a valid address\");\n      numCarriers = numCarriers + 1;\n      mapCarrier[msg.sender] = numCarriers;\n      carrierList[numCarriers] = Carrier({\n        company : _company,\n        name: _name,\n        email:_email,\n        phoneNo : _phoneno,\n        numservice :0,\n        companyAddr: msg.sender,\n        valid  : true\n      });\n  }\n\n  function addService (int _latitude,int _longitude,uint _fare,string _path) public {\n\n    require (carrierList[mapCarrier[msg.sender]].valid,\"Not a valid address\");\n    \n    carrierInfo memory currentservice;\n    carrierList[mapCarrier[msg.sender]].numservice += 1;\n    currentservice.latitude = _latitude;\n    currentservice.longitude = _longitude;\n    currentservice.fareperkm = _fare;\n    currentservice.path = _path;\n    currentservice.volume = 0;\n    currentservice.weight = 0;\n    serviceList[msg.sender].push(currentservice);\n  }\n\n  function getService (uint _id) public view returns(string res,uint fare,int lat,int lon) {\n\n    return (serviceList[msg.sender][_id].path,serviceList[msg.sender][_id].fareperkm,serviceList[msg.sender][_id].latitude,serviceList[msg.sender][_id].longitude);\n  }\n\n  function searchCarriers (string  _path,int _latitude,int _longitude,uint _volume,uint _weight) public view returns(uint[]) {\n    require (!carrierList[mapCarrier[msg.sender]].valid,\"Not a valid address\");\n     \n     uint[] memory requestList = new uint[](5);\n     uint count = 0;\n     for(uint i=1;i<=numCarriers;i++){\n        address compaddr = carrierList[i].companyAddr;\n       \n        uint numser = carrierList[i].numservice;\n        for(uint j=0;j<numser;j++){\n          int disLat = (_latitude - serviceList[compaddr][j].latitude) * (_latitude - serviceList[compaddr][j].latitude);\n          int disLon = (_longitude - serviceList[compaddr][j].longitude) * (_longitude - serviceList[compaddr][j].longitude);\n          string memory b = serviceList[compaddr][j].path;\n          if(disLat + disLon < 100 &&  keccak256(abi.encodePacked(_path)) == keccak256(abi.encodePacked(b)) && maxweight >= serviceList[compaddr][j].weight+_weight && maxvolume >= serviceList[compaddr][j].volume+_volume)\n            {\n              if(count==5)\n                break;\n              requestList[count] = i;\n            }\n        }\n        count++;\n      } \n\n      return requestList;\n  }\n\n  function bookCargo(uint _weight,uint _volume,string _category,string _name,uint _phno,string _custname,address _caddr,uint _pay) public payable {\n      require (!carrierList[mapCarrier[msg.sender]].valid,\"Not a valid address\");\n      \n      Cargos memory currentcargo;\n      numCargo[msg.sender]+=1;\n      currentcargo.weight = _weight;\n      currentcargo.volume = _volume;\n      currentcargo.category = _category;\n      currentcargo.custname = _custname;\n      currentcargo.phno = _phno;\n      currentcargo.cargoname = _name;\n      currentcargo.companyAddr = _caddr;\n      currentcargo.amountToPay = _pay;\n      currentcargo.status = 1;\n      cargoList[msg.sender].push(currentcargo);\n      serviceCargo[_caddr].push(currentcargo);\n   }\n\n   function isDriverValid() public view returns(bool res) {\n    if(mapCarrier[msg.sender]>0)\n      return true;\n    else\n      return false;  \n  }\n   function getDriverDetails (uint id) public view returns(string,address)  {\n    require (id >0 && id <=numCarriers,\"Invalid id of driver\");\n\n    return (carrierList[id].company,carrierList[id].companyAddr);\n  }\n  function getFare (uint id,string _path) public view returns(uint)  {\n    require (id >0 && id <=numCarriers,\"Invalid id of driver\");\n    uint fare;\n    uint numser = carrierList[id].numservice;\n    address compaddr = carrierList[id].companyAddr;\n    string memory b = serviceList[compaddr][j].path;\n    \n    for(uint j=0;j<numser;j++){\n      if(keccak256(abi.encodePacked(_path)) == keccak256(abi.encodePacked(b)))\n        fare = serviceList[compaddr][j].fareperkm;\n    }\n\n    return fare;\n  }\n\n  function getCargoList () public view returns(uint[])  {\n      require (!carrierList[mapCarrier[msg.sender]].valid,\"Not a valid address\");\n\n     uint[] memory requestList = new uint[](5);\n     uint size = numCargo[msg.sender];\n     uint count=0;\n     for(uint i=0;i<size;i++){\n      uint v = cargoList[msg.sender][i].status;\n      if(v==1){\n        if(count==5)\n                break;\n        requestList[count] = i+1;\n      }\n     }\n     return requestList;\n  }\n  function getCargoDetails (uint _id) public view returns(string,string,uint) {\n      require (!carrierList[mapCarrier[msg.sender]].valid,\"Not a valid address\");\n\n      return (cargoList[msg.sender][_id].category,cargoList[msg.sender][_id].cargoname,cargoList[msg.sender][_id].amountToPay);\n  }\n\n  function delivered(uint _id) public  {\n      require (!carrierList[mapCarrier[msg.sender]].valid,\"Not a valid address\");\n      cargoList[msg.sender][_id].status=2;\n    \n  }\n  \n  \n\n}\n",
  "sourcePath": "/home/vishal/blockchains/Decentralized_Cargo/contracts/Cargo.sol",
  "compiler": {
    "name": "solc",
    "version": "0.4.24+commit.e67f0147.Emscripten.clang"
  },
  "schemaVersion": "2.0.1",
  "updatedAt": "2019-04-11T21:03:20.731Z"
}