{
  "contractName": "Cargo",
  "abi": [
    {
      "constant": true,
      "inputs": [],
      "name": "numCarriers",
      "outputs": [
        {
          "name": "",
          "type": "uint256"
        }
      ],
      "payable": false,
      "stateMutability": "view",
      "type": "function"
    },
    {
      "constant": true,
      "inputs": [],
      "name": "owner",
      "outputs": [
        {
          "name": "",
          "type": "address"
        }
      ],
      "payable": false,
      "stateMutability": "view",
      "type": "function"
    },
    {
      "constant": true,
      "inputs": [],
      "name": "maxvolume",
      "outputs": [
        {
          "name": "",
          "type": "uint256"
        }
      ],
      "payable": false,
      "stateMutability": "view",
      "type": "function"
    },
    {
      "constant": true,
      "inputs": [],
      "name": "regFee",
      "outputs": [
        {
          "name": "",
          "type": "uint256"
        }
      ],
      "payable": false,
      "stateMutability": "view",
      "type": "function"
    },
    {
      "constant": true,
      "inputs": [],
      "name": "maxweight",
      "outputs": [
        {
          "name": "",
          "type": "uint256"
        }
      ],
      "payable": false,
      "stateMutability": "view",
      "type": "function"
    },
    {
      "inputs": [
        {
          "name": "_regFee",
          "type": "uint256"
        }
      ],
      "payable": false,
      "stateMutability": "nonpayable",
      "type": "constructor"
    },
    {
      "constant": false,
      "inputs": [
        {
          "name": "_company",
          "type": "string"
        },
        {
          "name": "_name",
          "type": "string"
        },
        {
          "name": "_phoneno",
          "type": "uint256"
        },
        {
          "name": "_email",
          "type": "string"
        }
      ],
      "name": "registerCarrier",
      "outputs": [],
      "payable": true,
      "stateMutability": "payable",
      "type": "function"
    },
    {
      "constant": false,
      "inputs": [
        {
          "name": "_latitude",
          "type": "int256"
        },
        {
          "name": "_longitude",
          "type": "int256"
        },
        {
          "name": "_fare",
          "type": "uint256"
        },
        {
          "name": "_path",
          "type": "string"
        }
      ],
      "name": "addService",
      "outputs": [],
      "payable": false,
      "stateMutability": "nonpayable",
      "type": "function"
    },
    {
      "constant": true,
      "inputs": [
        {
          "name": "_id",
          "type": "uint256"
        }
      ],
      "name": "getService",
      "outputs": [
        {
          "name": "res",
          "type": "string"
        },
        {
          "name": "fare",
          "type": "uint256"
        },
        {
          "name": "lat",
          "type": "int256"
        },
        {
          "name": "lon",
          "type": "int256"
        }
      ],
      "payable": false,
      "stateMutability": "view",
      "type": "function"
    },
    {
      "constant": true,
      "inputs": [
        {
          "name": "_path",
          "type": "string"
        },
        {
          "name": "_latitude",
          "type": "int256"
        },
        {
          "name": "_longitude",
          "type": "int256"
        },
        {
          "name": "_volume",
          "type": "uint256"
        },
        {
          "name": "_weight",
          "type": "uint256"
        }
      ],
      "name": "searchCarriers",
      "outputs": [
        {
          "name": "",
          "type": "uint256[]"
        }
      ],
      "payable": false,
      "stateMutability": "view",
      "type": "function"
    },
    {
      "constant": false,
      "inputs": [
        {
          "name": "_weight",
          "type": "uint256"
        },
        {
          "name": "_volume",
          "type": "uint256"
        },
        {
          "name": "_category",
          "type": "string"
        },
        {
          "name": "_name",
          "type": "string"
        },
        {
          "name": "_phno",
          "type": "uint256"
        },
        {
          "name": "_custname",
          "type": "string"
        }
      ],
      "name": "bookCargo",
      "outputs": [],
      "payable": true,
      "stateMutability": "payable",
      "type": "function"
    },
    {
      "constant": true,
      "inputs": [],
      "name": "isDriverValid",
      "outputs": [
        {
          "name": "res",
          "type": "bool"
        }
      ],
      "payable": false,
      "stateMutability": "view",
      "type": "function"
    }
  ],
  "bytecode": "0x608060405234801561001057600080fd5b506040516020806119d683398101806040528101908080519060200190929190505050336000806101000a81548173ffffffffffffffffffffffffffffffffffffffff021916908373ffffffffffffffffffffffffffffffffffffffff160217905550806007819055506103e86009819055506103e86008819055505061193a8061009c6000396000f3006080604052600436106100af576000357c0100000000000000000000000000000000000000000000000000000000900463ffffffff1680631cc7fced146100b45780638da5cb5b146100df5780638dadb4c6146101365780638df7888a146101615780638fff20f3146101905780639c940114146101bb578063a04cc230146101e6578063abdce7aa146102d8578063c03dc9241461035f578063d866d14b14610465578063ef0e239b1461054b575b600080fd5b3480156100c057600080fd5b506100c9610606565b6040518082815260200191505060405180910390f35b3480156100eb57600080fd5b506100f461060c565b604051808273ffffffffffffffffffffffffffffffffffffffff1673ffffffffffffffffffffffffffffffffffffffff16815260200191505060405180910390f35b34801561014257600080fd5b5061014b610631565b6040518082815260200191505060405180910390f35b34801561016d57600080fd5b50610176610637565b604051808215151515815260200191505060405180910390f35b34801561019c57600080fd5b506101a5610691565b6040518082815260200191505060405180910390f35b3480156101c757600080fd5b506101d0610697565b6040518082815260200191505060405180910390f35b6102d6600480360381019080803590602001908201803590602001908080601f0160208091040260200160405190810160405280939291908181526020018383808284378201915050505050509192919290803590602001908201803590602001908080601f016020809104026020016040519081016040528093929190818152602001838380828437820191505050505050919291929080359060200190929190803590602001908201803590602001908080601f016020809104026020016040519081016040528093929190818152602001838380828437820191505050505050919291929050505061069d565b005b3480156102e457600080fd5b5061035d600480360381019080803590602001909291908035906020019092919080359060200190929190803590602001908201803590602001908080601f016020809104026020016040519081016040528093929190818152602001838380828437820191505050505050919291929050505061097f565b005b6104636004803603810190808035906020019092919080359060200190929190803590602001908201803590602001908080601f0160208091040260200160405190810160405280939291908181526020018383808284378201915050505050509192919290803590602001908201803590602001908080601f016020809104026020016040519081016040528093929190818152602001838380828437820191505050505050919291929080359060200190929190803590602001908201803590602001908080601f0160208091040260200160405190810160405280939291908181526020018383808284378201915050505050509192919290505050610bc2565b005b34801561047157600080fd5b506104f4600480360381019080803590602001908201803590602001908080601f016020809104026020016040519081016040528093929190818152602001838380828437820191505050505050919291929080359060200190929190803590602001909291908035906020019092919080359060200190929190505050610eaa565b6040518080602001828103825283818151815260200191508051906020019060200280838360005b8381101561053757808201518184015260208101905061051c565b505050509050019250505060405180910390f35b34801561055757600080fd5b50610576600480360381019080803590602001909291905050506115ad565b6040518080602001858152602001848152602001838152602001828103825286818151815260200191508051906020019080838360005b838110156105c85780820151818401526020810190506105ad565b50505050905090810190601f1680156105f55780820380516001836020036101000a031916815260200191505b509550505050505060405180910390f35b60065481565b6000809054906101000a900473ffffffffffffffffffffffffffffffffffffffff1681565b60095481565b600080600260003373ffffffffffffffffffffffffffffffffffffffff1673ffffffffffffffffffffffffffffffffffffffff168152602001908152602001600020541115610689576001905061068e565b600090505b90565b60075481565b60085481565b6007543410151515610717576040517f08c379a000000000000000000000000000000000000000000000000000000000815260040180806020018281038252601d8152602001807f496e73756666696369656e7420526567697374726174696f6e2046656500000081525060200191505060405180910390fd5b60016000600260003373ffffffffffffffffffffffffffffffffffffffff1673ffffffffffffffffffffffffffffffffffffffff16815260200190815260200160002054815260200190815260200160002060060160009054906101000a900460ff161515156107ef576040517f08c379a00000000000000000000000000000000000000000000000000000000081526004018080602001828103825260138152602001807f4e6f7420612076616c696420616464726573730000000000000000000000000081525060200191505060405180910390fd5b600160065401600681905550600654600260003373ffffffffffffffffffffffffffffffffffffffff1673ffffffffffffffffffffffffffffffffffffffff1681526020019081526020016000208190555060e0604051908101604052808581526020018481526020018281526020013373ffffffffffffffffffffffffffffffffffffffff168152602001838152602001600081526020016001151581525060016000600654815260200190815260200160002060008201518160000190805190602001906108c09291906117d6565b5060208201518160010190805190602001906108dd9291906117d6565b5060408201518160020190805190602001906108fa9291906117d6565b5060608201518160030160006101000a81548173ffffffffffffffffffffffffffffffffffffffff021916908373ffffffffffffffffffffffffffffffffffffffff1602179055506080820151816004015560a0820151816005015560c08201518160060160006101000a81548160ff02191690831515021790555090505050505050565b610987611856565b60016000600260003373ffffffffffffffffffffffffffffffffffffffff1673ffffffffffffffffffffffffffffffffffffffff16815260200190815260200160002054815260200190815260200160002060060160009054906101000a900460ff161515610a5e576040517f08c379a00000000000000000000000000000000000000000000000000000000081526004018080602001828103825260138152602001807f4e6f7420612076616c696420616464726573730000000000000000000000000081525060200191505060405180910390fd5b6001806000600260003373ffffffffffffffffffffffffffffffffffffffff1673ffffffffffffffffffffffffffffffffffffffff16815260200190815260200160002054815260200190815260200160002060050160008282540192505081905550848160000181815250508381602001818152505082816040018181525050818160600181905250600081608001818152505060008160a0018181525050600360003373ffffffffffffffffffffffffffffffffffffffff1673ffffffffffffffffffffffffffffffffffffffff16815260200190815260200160002081908060018154018082558091505090600182039060005260206000209060060201600090919290919091506000820151816000015560208201518160010155604082015181600201556060820151816003019080519060200190610ba39291906117d6565b506080820151816004015560a082015181600501555050505050505050565b610bca61188d565b60016000600260003373ffffffffffffffffffffffffffffffffffffffff1673ffffffffffffffffffffffffffffffffffffffff16815260200190815260200160002054815260200190815260200160002060060160009054906101000a900460ff16151515610ca2576040517f08c379a00000000000000000000000000000000000000000000000000000000081526004018080602001828103825260138152602001807f4e6f7420612076616c696420616464726573730000000000000000000000000081525060200191505060405180910390fd5b6001600560003373ffffffffffffffffffffffffffffffffffffffff1673ffffffffffffffffffffffffffffffffffffffff1681526020019081526020016000206000828254019250508190555086816080018181525050858160a00181815250508481606001819052508181602001819052508281600001818152505083816040018190525060008160c0019073ffffffffffffffffffffffffffffffffffffffff16908173ffffffffffffffffffffffffffffffffffffffff168152505060008160e0018181525050600460003373ffffffffffffffffffffffffffffffffffffffff1673ffffffffffffffffffffffffffffffffffffffff1681526020019081526020016000208190806001815401808255809150509060018203906000526020600020906008020160009091929091909150600082015181600001556020820151816001019080519060200190610dfe9291906117d6565b506040820151816002019080519060200190610e1b9291906117d6565b506060820151816003019080519060200190610e389291906117d6565b506080820151816004015560a0820151816005015560c08201518160060160006101000a81548173ffffffffffffffffffffffffffffffffffffffff021916908373ffffffffffffffffffffffffffffffffffffffff16021790555060e0820151816007015550505050505050505050565b6060806000806000806000806000606060016000600260003373ffffffffffffffffffffffffffffffffffffffff1673ffffffffffffffffffffffffffffffffffffffff16815260200190815260200160002054815260200190815260200160002060060160009054906101000a900460ff16151515610f92576040517f08c379a00000000000000000000000000000000000000000000000000000000081526004018080602001828103825260138152602001807f4e6f7420612076616c696420616464726573730000000000000000000000000081525060200191505060405180910390fd5b6005604051908082528060200260200182016040528015610fc25781602001602082028038833980820191505090505b50985060009750600196505b60065487111515611598576001600088815260200190815260200160002060030160009054906101000a900473ffffffffffffffffffffffffffffffffffffffff16955060016000888152602001908152602001600020600501549450600093505b8484101561158357600360008773ffffffffffffffffffffffffffffffffffffffff1673ffffffffffffffffffffffffffffffffffffffff1681526020019081526020016000208481548110151561108457fe5b9060005260206000209060060201600001548e03600360008873ffffffffffffffffffffffffffffffffffffffff1673ffffffffffffffffffffffffffffffffffffffff168152602001908152602001600020858154811015156110e457fe5b9060005260206000209060060201600001548f03029250600360008773ffffffffffffffffffffffffffffffffffffffff1673ffffffffffffffffffffffffffffffffffffffff1681526020019081526020016000208481548110151561114757fe5b9060005260206000209060060201600101548d03600360008873ffffffffffffffffffffffffffffffffffffffff1673ffffffffffffffffffffffffffffffffffffffff168152602001908152602001600020858154811015156111a757fe5b9060005260206000209060060201600101548e03029150600360008773ffffffffffffffffffffffffffffffffffffffff1673ffffffffffffffffffffffffffffffffffffffff1681526020019081526020016000208481548110151561120a57fe5b90600052602060002090600602016003018054600181600116156101000203166002900480601f0160208091040260200160405190810160405280929190818152602001828054600181600116156101000203166002900480156112af5780601f10611284576101008083540402835291602001916112af565b820191906000526020600020905b81548152906001019060200180831161129257829003601f168201915b50505050509050606482840112801561146b5750806040516020018082805190602001908083835b6020831015156112fc57805182526020820191506020810190506020830392506112d7565b6001836020036101000a0380198251168184511680821785525050505050509050019150506040516020818303038152906040526040518082805190602001908083835b6020831015156113655780518252602082019150602081019050602083039250611340565b6001836020036101000a0380198251168184511680821785525050505050509050019150506040518091039020600019168f6040516020018082805190602001908083835b6020831015156113cf57805182526020820191506020810190506020830392506113aa565b6001836020036101000a0380198251168184511680821785525050505050509050019150506040516020818303038152906040526040518082805190602001908083835b6020831015156114385780518252602082019150602081019050602083039250611413565b6001836020036101000a038019825116818451168082178552505050505050905001915050604051809103902060001916145b80156114d857508a600360008873ffffffffffffffffffffffffffffffffffffffff1673ffffffffffffffffffffffffffffffffffffffff168152602001908152602001600020858154811015156114bf57fe5b9060005260206000209060060201600501540160085410155b801561154557508b600360008873ffffffffffffffffffffffffffffffffffffffff1673ffffffffffffffffffffffffffffffffffffffff1681526020019081526020016000208581548110151561152c57fe5b9060005260206000209060060201600401540160095410155b1561157657600588141561155857611583565b86898981518110151561156757fe5b90602001906020020181815250505b8380600101945050611030565b87806001019850508680600101975050610fce565b88995050505050505050505095945050505050565b60606000806000600360003373ffffffffffffffffffffffffffffffffffffffff1673ffffffffffffffffffffffffffffffffffffffff1681526020019081526020016000208581548110151561160057fe5b9060005260206000209060060201600301600360003373ffffffffffffffffffffffffffffffffffffffff1673ffffffffffffffffffffffffffffffffffffffff1681526020019081526020016000208681548110151561165d57fe5b906000526020600020906006020160020154600360003373ffffffffffffffffffffffffffffffffffffffff1673ffffffffffffffffffffffffffffffffffffffff168152602001908152602001600020878154811015156116bb57fe5b906000526020600020906006020160000154600360003373ffffffffffffffffffffffffffffffffffffffff1673ffffffffffffffffffffffffffffffffffffffff1681526020019081526020016000208881548110151561171957fe5b906000526020600020906006020160010154838054600181600116156101000203166002900480601f0160208091040260200160405190810160405280929190818152602001828054600181600116156101000203166002900480156117c05780601f10611795576101008083540402835291602001916117c0565b820191906000526020600020905b8154815290600101906020018083116117a357829003601f168201915b5050505050935093509350935093509193509193565b828054600181600116156101000203166002900490600052602060002090601f016020900481019282601f1061181757805160ff1916838001178555611845565b82800160010185558215611845579182015b82811115611844578251825591602001919060010190611829565b5b50905061185291906118e9565b5090565b60c0604051908101604052806000815260200160008152602001600081526020016060815260200160008152602001600081525090565b61010060405190810160405280600081526020016060815260200160608152602001606081526020016000815260200160008152602001600073ffffffffffffffffffffffffffffffffffffffff168152602001600081525090565b61190b91905b808211156119075760008160009055506001016118ef565b5090565b905600a165627a7a72305820ee4718cb764c1753b2641313381825797bda109d1043e4f6ad7086e94f54b8ba0029",
  "source": "pragma solidity ^0.4.24;\n\ncontract Cargo {\n\n  address public owner;\n  \n  struct Carrier {\n    string company;\n    string name;\n    string email;\n    address companyAddr;\n    uint phoneNo;\n    uint numservice;\n    bool valid;\n  }\n\n  struct carrierInfo{\n    int latitude;\n    int longitude;\n    uint fareperkm;\n    string path;\n    uint volume;\n    uint weight;\n  }\n\n  struct Cargos{\n    uint phno;\n    string custname;\n    string cargoname;\n    string category;\n    uint weight;\n    uint volume;\n    address companyAddr;\n    uint amountToPay;\n  }\n  \n  mapping(uint => Carrier)  carrierList;\n  mapping (address => uint) mapCarrier;\n  mapping (address => carrierInfo[]) serviceList;\n  mapping (address => Cargos[]) cargoList;\n  mapping (address => uint) numCargo;\n  \n  \n\n  uint public numCarriers;\n  uint public regFee;\n  uint public maxweight ;\n  uint public maxvolume ;\n\n  modifier restricted() {\n    if (msg.sender == owner) _;\n  }\n  // owner deploy this contract with company reg fee\n  constructor(uint _regFee) public {\n    owner = msg.sender;\n    regFee = _regFee;\n    maxvolume = 1000;\n    maxweight = 1000;\n  }\n\n  function registerCarrier(string memory _company,string memory _name,uint _phoneno,string memory _email) public payable {\n     require (msg.value >= regFee,\"Insufficient Registration Fee\");\n     require (!carrierList[mapCarrier[msg.sender]].valid,\"Not a valid address\");\n      numCarriers = numCarriers + 1;\n      mapCarrier[msg.sender] = numCarriers;\n      carrierList[numCarriers] = Carrier({\n        company : _company,\n        name: _name,\n        email:_email,\n        phoneNo : _phoneno,\n        numservice :0,\n        companyAddr: msg.sender,\n        valid  : true\n      });\n  }\n\n  function addService (int _latitude,int _longitude,uint _fare,string memory _path) public {\n\n    require (carrierList[mapCarrier[msg.sender]].valid,\"Not a valid address\");\n    \n    carrierInfo memory currentservice;\n    carrierList[mapCarrier[msg.sender]].numservice += 1;\n    currentservice.latitude = _latitude;\n    currentservice.longitude = _longitude;\n    currentservice.fareperkm = _fare;\n    currentservice.path = _path;\n    currentservice.volume = 0;\n    currentservice.weight = 0;\n    serviceList[msg.sender].push(currentservice);\n  }\n\n  function getService (uint _id) public view returns(string res,uint fare,int lat,int lon) {\n\n    return (serviceList[msg.sender][_id].path,serviceList[msg.sender][_id].fareperkm,serviceList[msg.sender][_id].latitude,serviceList[msg.sender][_id].longitude);\n  }\n\n  function searchCarriers (string  _path,int _latitude,int _longitude,uint _volume,uint _weight) public view returns(uint[]) {\n    require (!carrierList[mapCarrier[msg.sender]].valid,\"Not a valid address\");\n     \n     uint[] memory requestList = new uint[](5);\n     uint count = 0;\n     for(uint i=1;i<=numCarriers;i++){\n        address compaddr = carrierList[i].companyAddr;\n       \n        uint numser = carrierList[i].numservice;\n        for(uint j=0;j<numser;j++){\n          int disLat = (_latitude - serviceList[compaddr][j].latitude) * (_latitude - serviceList[compaddr][j].latitude);\n          int disLon = (_longitude - serviceList[compaddr][j].longitude) * (_longitude - serviceList[compaddr][j].longitude);\n          string memory b = serviceList[compaddr][j].path;\n          if(disLat + disLon < 100 &&  keccak256(abi.encodePacked(_path)) == keccak256(abi.encodePacked(b)) && maxweight >= serviceList[compaddr][j].weight+_weight && maxvolume >= serviceList[compaddr][j].volume+_volume)\n            {\n              if(count==5)\n                break;\n              requestList[count] = i;\n            }\n        }\n        count++;\n      } \n\n      return requestList;\n  }\n\n  function bookCargo(uint _weight,uint _volume,string _category,string _name,uint _phno,string _custname) public payable {\n      require (!carrierList[mapCarrier[msg.sender]].valid,\"Not a valid address\");\n      \n      Cargos memory currentcargo;\n      numCargo[msg.sender]+=1;\n      currentcargo.weight = _weight;\n      currentcargo.volume = _volume;\n      currentcargo.category = _category;\n      currentcargo.custname = _custname;\n      currentcargo.phno = _phno;\n      currentcargo.cargoname = _name;\n      currentcargo.companyAddr = address(0);\n      currentcargo.amountToPay = 0;\n      cargoList[msg.sender].push(currentcargo);\n   }\n   \n   function isDriverValid() public view returns(bool res) {\n    if(mapCarrier[msg.sender]>0)\n      return true;\n    else\n      return false;  \n  }\n\n  \n\n\n}\n",
  "sourcePath": "/home/vishal/blockchains/Decentralized_Cargo/contracts/Cargo.sol",
  "compiler": {
    "name": "solc",
    "version": "0.4.24+commit.e67f0147.Emscripten.clang"
  },
  "schemaVersion": "2.0.1",
  "updatedAt": "2019-04-07T13:50:46.345Z"
}